:1000000013C036C035C034C033C032C031C030C078
:100010002FC029C32DC0C7C12BC08FC129C028C084
:1000200027C026C025C0370711241FBECFE5D4E066
:10003000DEBFCDBF13E0A0E6B0E0E8EFF0E102C024
:1000400005900D92A430B107D9F714E0A4E0B3E015
:1000500001C01D92A530B107E1F710E0C8E2D0E081
:1000600003C02297FE010DD8C632D107D1F763C372
:10007000C7CFFC017183608353834283178216824A
:10008000158214820895CF93DF93EC018C819D81BA
:10009000892B11F4E0E017C08E819F81E881F981FE
:1000A000E80FF91FE08101969F838E836A817B812F
:1000B0008617970718F092D79F838E838C819D8136
:1000C00001979D838C838E2F9927DF91CF9108957F
:1000D000FC019B018481958168177907A8F48681CA
:1000E0009781860F971F9783868362817381861716
:1000F000970718F073D79783868384819581821B35
:10010000930B958384830895158214820895FC01CE
:100110009B018681978162817381820F931F5ED7D5
:100120000190F081E02DE80FF91F80819927089553
:10013000CF93DF93EC01462F2C813D816A817B8137
:100140002617370718F080E090E011C08E819F815C
:10015000820F931F43D7E881F981E80FF91F40838D
:100160008C819D8101969D838C838FEF90E0DF9140
:10017000CF910895FC0140E050E0248135818281D7
:1001800093812817390710F441E050E0CA0108951F
:10019000FC01158214820895EF92FF920F931F9332
:1001A0007A018B0151D0C801B70126D01F910F9160
:1001B000FF90EF9008958ED0089562D0FC01848165
:1001C00099270895FF920F931F93CF93DF93F42EF7
:1001D000C0E0D0E08B0105C0F80181918F0156D0BD
:1001E00021968F2D9927C817D907B4F3DF91CF91A6
:1001F0001F910F91FF900895F3E0660F771F881FFE
:10020000991FFA95D1F79B01AC01220F331F441FB0
:10021000551F60507C4D8B409F4FF4D6215030408D
:1002200029B9232F332720BD089540E450E066E428
:1002300073E08EEE93E01DDF40E450E066E073E093
:1002400087EF93E016DF0895F0DF10920503109218
:10025000040388ED8AB960E875E280E090E0CCDFC5
:100260008FEF8093ED031092F6031092000410922A
:10027000FF037894089590930503809304030895F1
:100280008EEE93E0089587EF93E00895982F809184
:10029000ED038823E1F39CB91092ED030895CF9309
:1002A000DF93EC018091F0039091F103892B69F0C9
:1002B0008091F2039091F303892B39F08EEE93E055
:1002C000E2DE88838FEF90E002C080E090E0DF9173
:1002D000CF910895CF93DF93CDB7DEB721970FB6B7
:1002E000F894DEBF0FBECDBFCE010196D8DF8823C4
:1002F00019F48FEF9FEF02C08981992721960FB6DD
:10030000F894DEBF0FBECDBFDF91CF91089510925C
:10031000F3031092F20308958091F2039091F30396
:10032000892B19F48FEF90E0089580E090E0089514
:10033000682F87EF93E0FCDE08951F920F920FB6AF
:100340000F9211242F933F934F935F936F937F935B
:100350008F939F93AF93BF93EF93FF938091F60397
:10036000882369F08091FB039091FC03892B29F08D
:1003700087EF93E088DE8CB905C01092F6038FEF0B
:100380008093ED03FF91EF91BF91AF919F918F917A
:100390007F916F915F914F913F912F910F900FBE81
:1003A0000F901F9018951F920F920FB60F92112465
:1003B0002F933F934F935F936F937F938F939F936D
:1003C000AF93BF93EF93FF936CB18091040390912F
:1003D0000503892B39F0E0910403F0910503862F82
:1003E00009950EC08EEE93E0A3DE882349F4809138
:1003F000FF03909100040196909300048093FF0303
:10040000FF91EF91BF91AF919F918F917F916F91EC
:100410005F914F913F912F910F900FBE0F901F90C2
:1004200018958FEF8093F60387EF93E02CDE982FDB
:100430008091ED038823E1F39CB91092ED030895B8
:10044000880F991F880F991FE0919800F0919900EB
:10045000E80FF91F808191810895880F991F880FF7
:10046000991FE0919800F0919900E80FF91F82819F
:1004700093810895880F991FE0917A00F0917B0095
:10048000E80FF91F808191810895880F991F880FC7
:10049000991FE0916000F0916100E80FF91F8281DF
:1004A00093810895EF92FF920F931F937B018C012C
:1004B000CBDEC801B701A0DE1F910F91FF90EF9036
:1004C0000895E4DE0895DCDEFC01848195810895C1
:1004D00001DF08950895F5DF08958AE0FCDF0895AF
:1004E000CF93DF93EC0102C02196F5DF888188234A
:1004F000D9F7DF91CF9108952F923F924F925F925B
:100500006F927F928F929F92AF92BF92CF92DF9223
:10051000EF92FF920F931F93CF93DF93CDB7DEB788
:10052000A0970FB6F894DEBF0FBECDBF6B017C0164
:1005300019012A01611571058105910519F480E3FE
:10054000CADF48C06624772443015E010894A11CD9
:10055000B11C8501060D171DC701B601A20191014D
:1005600051D5F80160830894611C711C811C911C99
:10057000C701B601A201910145D569017A01211592
:1005800031054105510529F773010894E108F10887
:10059000EA0CFB1CAA24BB24650110C0F701808172
:1005A0008A3010F4805D01C0895C95DF0894A10851
:1005B000B108C108D1080894E108F10888279927F3
:1005C000DC0186199709A809B909A816B906CA064F
:1005D000DB0621F7A0960FB6F894DEBF0FBECDBFA5
:1005E000DF91CF911F910F91FF90EF90DF90CF900F
:1005F000BF90AF909F908F907F906F905F904F9043
:100600003F902F900895EF92FF920F931F937B01DD
:100610008C0197FF0AC08DE25EDF10950095F09483
:10062000E094E11CF11C011D111D2AE030E040E0C6
:1006300050E0C801B70160DF1F910F91FF90EF906C
:10064000089520E130E040E050E056DF089528E0D2
:1006500030E040E050E050DF089522E030E040E03C
:1006600050E04ADF08951F920F920FB60F921124A7
:100670008F939F93AF93BF93809101049091020455
:10068000A0910304B09104040196A11DB11D8093B3
:10069000010490930204A0930304B0930404BF9157
:1006A000AF919F918F910F900FBE0F901F90189553
:1006B00060910104709102048091030490910404FC
:1006C000E4E0660F771F881F991FEA95D1F72DE7A1
:1006D00030E040E050E096D4CA01B9010895AF92ED
:1006E000BF92CF92DF92EF92FF920F931F935B0125
:1006F0006C01DEDF7B018C01DBDF6E197F09800B73
:10070000910B6A157B058C059D05B0F31F910F9128
:10071000FF90EF90DF90CF90BF90AF90089501973A
:1007200049F0880F991F880F991F0297F894019735
:10073000F1F778940895CFE5D4E0DEBFCDBF78948B
:100740001092010410920204109203041092040407
:1007500083B7826083BF89B7816089BF8EB58260AD
:100760008EBD8EB581608EBD8FB581608FBD85B524
:10077000846085BD85B5806485BD3F983E9A329A78
:10078000319A309A379AECD1F1D1FECFCF93DF93E3
:10079000880F991F880F991FA0919800B091990018
:1007A000A80FB91FED91FC911197309731F1EE0F21
:1007B000FF1FED014A815B81672B81F4EA51FF4FF6
:1007C0000190F081E02D20A181E090E002C0880F2F
:1007D000991F4A95E2F7809528230EC0EA51FF4FF2
:1007E0000190F081E02D20A181E090E002C0880F0F
:1007F000991F4A95E2F7282B20A3DF91CF91089506
:10080000CF93DF939C01880F991F880F991FA091A8
:100810009800B0919900A80FB91F4D915C91119764
:100820004115510509F444C0220F331FE0917A00AD
:10083000F0917B00E20FF31F0190F081E02DE23098
:10084000F10519F48FB58F7705C0E330F10521F478
:100850008FB58F7D8FBD05C0349719F485B58F7D19
:1008600085BDFA01EE0FFF1FED014A815B81672B09
:1008700081F4E452FF4F0190F081E02D20A181E04E
:1008800090E002C0880F991F4A95E2F780952823CF
:100890000EC0E452FF4F0190F081E02D20A181E0D5
:1008A00090E002C0880F991F4A95E2F7282B20A3F9
:1008B000DF91CF9108950F931F93CF93DF93EC01B6
:1008C0008B0161E070E062DFCE01880F991FE0913B
:1008D0007A00F0917B00E80FF91F0190F081E02D84
:1008E000E230F10531F48FB580688FBD1BBD0ABDC4
:1008F0001AC0E330F10531F48FB580628FBD19BDA8
:1009000008BD11C0349729F485B5806285BD03BD4B
:100910000AC0003811051CF460E070E002C061E01C
:1009200070E0CE016DDFDF91CF911F910F9108959F
:10093000CF93DF939C01880F991F880F991FC09157
:100940009800D0919900C80FD91FA881B98110973C
:1009500019F480E090E02DC0220F331FE0917A005F
:10096000F0917B00E20FF31F0190F081E02DE23067
:10097000F10519F48FB58F7705C0E330F10521F447
:100980008FB58F7D8FBD05C0349719F485B58F7DE8
:1009900085BDAA0FBB1FAE52BF4FED91FC9180A148
:1009A00099270A8002C0959587950A94E2F781708D
:1009B0009070DF91CF910895CF93DF93880F991FA7
:1009C000880F991FA0919800B0919900A80FB91FA6
:1009D000ED91FC911197EE0FFF1FEE52FF4F01902A
:1009E000F081E02DED018A819B81A1E0B0E0082E2D
:1009F00002C0AA0FBB1F0A94E2F720E030E0672B89
:100A000011F021E030E0B90102C0660F771F8A952E
:100A1000E2F7EF01A09680A199278A239B238617EE
:100A20009707C9F720E030E040E050E004C02F5FB6
:100A30003F4F4F4F5F4F888199278A239B2386170B
:100A40009707A9F3CA01B90124E130E040E050E082
:100A5000A6D227E130E040E050E0D4D2CA01B9018B
:100A6000DF91CF91089527B1207F880F991F880FBC
:100A7000991FE0916000F0916100E80FF91F8281F9
:100A80008F70282B27B961E070E080E090E027DECE
:100A9000369A3699FECF24B185B19927982F8827A9
:100AA0003327822B932B0895CF93DF93EC010BDD3B
:100AB000892B31F002C00CDD899305DD892BD9F734
:100AC000DF91CF910895CF93DF93FC01808188233C
:100AD00039F0EF0102C0F5DC199288818823D9F73B
:100AE000DF91CF910895FC0120E030E080818823E0
:100AF00011F421E030E0C9010895CF93DF93EC01B8
:100B000002C02196E8DC88818823D9F7E4DCDF91F4
:100B1000CF910895009719F480EF90E011C08130D3
:100B2000910519F48DE191E00BC08230910519F423
:100B30008CE591E005C08330910521F48FE991E0C7
:100B4000DCDF089504975CF085EF91E0C9DC87E471
:100B500092E0C6DC8EE792E0C3DC80E0BCDC089566
:100B600060E07BE480E090E09DDC089588E893E01D
:100B70009BDF809188038823B1F084EE92E0B0DCA3
:100B800088E893E0A0DF80E0A6DC80918603909166
:100B90008703C0DF8091860390918703019690932D
:100BA00087038093860360ED77E080E090E097DD37
:100BB0000895FC01662311F41082089581E080837A
:100BC0000895FC01662311F41082089581E080836A
:100BD0000895FC018081E0DA0895FC018081EDDA5E
:100BE00099270895FC018081E6DA0895CF93DF9379
:100BF000CDB7DEB721970FB6F894DEBF0FBECDBFDD
:100C0000FC01698341E0BE016F5F7F4F8081DADACA
:100C100021960FB6F894DEBF0FBECDBFDF91CF9106
:100C20000895FB0101900020E9F73197E61BF70BCF
:100C30004E2FFC018081C6DA0895CF93DF93CDB7A4
:100C4000DEB721970FB6F894DEBF0FBECDBFFC0113
:100C5000698341E0BE016F5F7F4F8081B3DA2196E7
:100C60000FB6F894DEBF0FBECDBFDF91CF910895D0
:100C70006F927F928F929F92AF92BF92CF92DF92AC
:100C8000EF92FF920F931F93CF93DF93CDB7DEB711
:100C9000A0970FB6F894DEBF0FBECDBF3C017A011E
:100CA0008B01411551056105710519F460E39EDF63
:100CB00037C04E010894811C911CA22EBB24CC2469
:100CC000DD24C801B701A60195019CD1F40161930F
:100CD0004F01C801B701A601950194D179018A019C
:100CE000211531054105510561F7CE0101968401B9
:100CF000081B190B015010407C01E00EF11E0EC0C4
:100D0000F70160816A3010F4605D01C0695CC30165
:100D10006DDF015010400894E108F10817FFF0CF93
:100D2000A0960FB6F894DEBF0FBECDBFDF91CF9176
:100D30001F910F91FF90EF90DF90CF90BF90AF90F9
:100D40009F908F907F906F900895EF92FF920F93F6
:100D50001F93CF93DF93EC017A018B0177FF0AC0D9
:100D60006DE244DF10950095F094E094E11CF11CD5
:100D7000011D111D2AE0B801A701CE0179DFDF9125
:100D8000CF911F910F91FF90EF900895AB016627CF
:100D900057FD6095762FD9DF08952AE069DF089521
:100DA0002115310519F4642F21DF08952A3031050A
:100DB00011F4CBDF08955CDF08950F931F938C012E
:100DC0006DE014DF6AE0C80111DF1F910F910895F3
:100DD0000F931F938C010ADFC801EFDF1F910F9162
:100DE00008950F931F938C01FB0101900020E9F7F8
:100DF0003197E61BF70B4E2FFC018081E3D9C80128
:100E0000DCDF1F910F9108950F931F938C0115DF65
:100E1000C801D3DF1F910F9108950F931F938C0189
:100E200094DFC801CADF1F910F910895AB016627B7
:100E300057FD6095762FF1DF08950F931F938C0176
:100E4000ACDFC801BADF1F910F9108950F931F9374
:100E50008C01A6DFC801B1DF1F910F9108950197A2
:100E600029F46F5F7F4F11F41092EC0308956FEF38
:100E70007FEF81E090E0F3DF0895009709F084D0E0
:100E80000895EF92FF920F931F937B018C016115E0
:100E900071058105910529F460E070E080E090E043
:100EA0000AC06ED0AA2797FDA095BA2FBC01CD012C
:100EB000A8019701C9D01F910F91FF90EF9008955D
:100EC000EF92FF920F931F937B018C0162177307C0
:100ED000840795075CF4261B370B480B590BCA0196
:100EE000B901CFDFE60EF71E081F191FC801B701B1
:100EF0001F910F91FF90EF900895A0E0B0E0E2E81D
:100F0000F7E0CBC0EC01E880F9800A811B81C801C1
:100F1000B7012DE133EF41E050E074D027EA31E42E
:100F200040E050E03CD05B016C01C801B7012DE10D
:100F300033EF41E050E066D0CA01B90124E13BE063
:100F400040E050E02CD0A61AB70AC80AD90A1A14F1
:100F50001B041C041D0444F08FEF9FEFAFEFBFE7AD
:100F6000A80EB91ECA1EDB1EA882B982CA82DB8205
:100F7000C5019F77EAE0CDB7DEB7ABC0BEDF08950D
:100F80008FEF92E0BADF0895AA27BB278093FF0274
:100F900090930003A0930103B09302030895629F0E
:100FA000D001739FF001829FE00DF11D649FE00D61
:100FB000F11D929FF00D839FF00D749FF00D659FC2
:100FC000F00D9927729FB00DE11DF91F639FB00DC1
:100FD000E11DF91FBD01CF0111240895AA1BBB1B00
:100FE00051E107C0AA1FBB1FA617B70710F0A61B29
:100FF000B70B881F991F5A95A9F780959095BC014A
:10100000CD010895A1E21A2EAA1BBB1BFD010DC044
:10101000AA1FBB1FEE1FFF1FA217B307E407F507A8
:1010200020F0A21BB30BE40BF50B661F771F881F84
:10103000991F1A9469F760957095809590959B011A
:10104000AC01BD01CF01089597FB092E05260ED0F6
:1010500057FD04D0D7DF0AD0001C38F450954095D6
:10106000309521953F4F4F4F5F4F0895F6F790957C
:101070008095709561957F4F8F4F9F4F0895EE0F2C
:10108000FF1F0590F491E02D09942F923F924F920B
:101090005F926F927F928F929F92AF92BF92CF9208
:1010A000DF92EF92FF920F931F93CF93DF93CDB711
:1010B000DEB7CA1BDB0B0FB6F894DEBF0FBECDBF89
:1010C00009942A88398848885F846E847D848C845A
:1010D0009B84AA84B984C884DF80EE80FD800C8163
:1010E0001B81AA81B981CE0FD11D0FB6F894DEBF46
:0810F0000FBECDBFED01089514
:1010F8006200030000000300010003000200030077
:10110800030003000400030005007C00FFFFFFFF4D
:10111800FFFFFFFFFFFFFFFFFFFFFFFFFFFF0200D3
:1011280003000400FFFFFFFF9A0004000000040012
:10113800010004000200040003000400040004008D
:101148000500040006000400070002000000020079
:101158000100020002000200030002000400020075
:101168000500FFFFFFFF160013001000FFFFFFFF41
:10117800180015001200FFFFFFFF170014001100F0
:1011880041726475696E6F3A204D616D6D61206DB5
:10119800696120466C6173682C2059657320492069
:1011A80063616E20686561722079752100417264FF
:1011B80075696E6F3A2077656C6C2C206C657427A6
:1011C8007320676F2068617665206120424952521A
:1011D8004120746F6765746865722C20776174208C
:1011E800646F2079752074696E6B3F004172647575
:1011F800696E6F3A20646F6E277420776F72727908
:1012080021206974276C6C206A757374206D616B7A
:1012180065206D792070696E7320676F20616E613B
:101228006C6F6720616E616C6F67203B2D290041F0
:10123800726475696E6F3A20676C7520676C7520EB
:10124800676C752120796F7572207475726E206EC7
:101258006F7720647564652C20696E7374656420EB
:101268006F66206A757374206C75726B696E672E71
:101278002E2E2061736B206D6520736F6D65746809
:10128800696E67210041726475696E6F3A20756EE8
:10129800666F7274756E6174656C7920666F722002
:1012A800796F75206D79206D61737465722069732B
:1012B80020736D617274206173206F6E65206F6694
:1012C800206D79206469676974616C2070696E7338
:1012D800203B2D29202C00207768696368206D65E4
:1012E800616E732074686174204920646F6E27747E
:1012F800206861766520616E20616E737765722063
:10130800666F7220746861742079657421002049C1
:10131800276C6C2061736B20626162626F20277496
:101328006F7572696E6727206E6174616C652074D1
:101338006F2067697665206D652061206E6575721E
:10134800616C206E6574776F726B20666F722068AF
:10135800616E64656C696E67206E61747572616C2C
:1013680020737065616B696E67206E657874207490
:10137800696D650041726475696E6F206865617298
:101388006420796F7520736179696E673A2000016E
:041398000000000051
:00000001FF
